:400000000080002011000000B11A0000B11A000008B5044B1A6803F53F5302331A6001F067FD00BFFA46004010B5054C237833B9044B13B10448AFF300800123237010BD7C
:40004000F882FF1F0000000090350000084B10B51BB108490848AFF300800848036803B910BD074B002BFBD0BDE81040184700BF00000000FC82FF1F90350000C880FF1F16
:400080000000000008B5002001F07EFF08BD00BF684620F007018D4619B572B6EFF311841E4B1B68DBB20F2B10D9103B23F0030202F1604202F564421168DB0003F01803D8
:4000C000E0229A400A4022FA03F306E00F2B03D1134B1B681B0E00E0002383F31188114A136801331360012B01D102F07BFC62B6FFF7C8FF72B684F3118802F03FF9094A4A
:400100001368013B13601BB902F075FC02F039FC62B6BDE819408546704700BF04ED00E020ED00E07084FF1F08B5022001F03AFD042001F037FD08BD08B562B645F6BF52DA
:40014000054B1A60054A136843F002031360002002F002FAFBE700BF14E000E010E000E030B5A1B002F092FB00F086FF012000F023FF6C46124D0FCD0FC495E8030044F814
:40018000040B24F8021B090C2170684601F0F0F902F046FA0B4A136843F00503136000F0A1FD01221146002001F070FD032001F0F9FC012001F0F6FC02F014FA21B030BDC8
:4001C0009435000010E000E000BFFDE730B591B001AC094D0FCD0FC40FCD0FC40FCD0FC495E8070084E807009DF8040008B100F0ADFD11B030BD00BFCC80FF1F70B58CB072
:4002000008AD1A4B04AC0FCB84E80F0085E8030006AB93E803000CAB03E9030095E80F008DE80F00124DAE6985E80F0000236B6102232B747569B36873B13DB90CE09968A5
:4002400055F8240001F046FF013400E00024084B9B691A699442F2D3054B1B7C022B03D1034883695B6898470CB070BD1481FF1F3081FF1FF0B59FB0354B5E6C3368002BF9
:400280005ED06C46324D0FCD0FC40FCD0FC40FCD0FC495E8070084E807003368684698470646002834D10FAC6D460FCD0FC40FCD0FC40FCD0FC495E8070084E80700244F55
:4002C000D7F844E03C460FAD0FCD0FC40FCD0FC40FCD0FC495E8070084E8070000233B64022387F83C30DEF81450DEF8083043B33DB926E0996855F8240001F0EBFE01343C
:4003000000E00024124B5B6C1A699442F2D318E00F4B032283F83C205B6CDD69DB6883B13DB90EE0D96855F8240001F0D3FE013400E00024064B5B6C9A699442F2D300E07E
:40034000002616B1034802F0BBFA1FB0F0BD00BFCC80FF1FAC35000000B583B000230193032001F037FF01A9032001F093FE019801F062FE019A0121014801F03DF9EFE7F3
:40038000C035000010B5084C22680221074801F01BF923680133236013F5807F01D90022226002F01FF910BD1483FF1FCC35000008B5012001F02CFA02F014F908BD00BF62
:4003C00030B4002309E003EB4305AC00045D944201D118B205E001339BB28B42F3D34FF0FF3030BC704700BF2DE9F84F044691469A469DF828800B9B93F800B05A46FFF77D
:40040000DFFFB0F1FF3F60D000EB400083001C4465680DB1268900E00026002D59D0002E5BD000244CE0274604EB44029300EB5C434543D104EB440293002B445B6813B1AC
:40044000984701283AD17A00D1198B0019462B449C680D446E78B9F1000F0FD111E005EB4502930009EB030219F803309B4502D1936803B198470135ADB200E0002555456B
:40048000EDD304B1A047B9F1000F0FD111E004EB4402930009EB030219F803309E4202D1536803B198470134A4B200E000245445EDD30B9B1E700020BDE8F88F0134A4B25D
:4004C000A642B0D80020BDE8F88F6FF01300BDE8F88F6FF01600BDE8F88F6FF01600BDE8F88F00BF70B588B0264B0FCB08AC04E90F009DF81E300133DBB28DF81E30224A66
:40050000A2FB03125209C2EB021291005B1A13F0FF0F16D19DF816300133DBB28DF816301A4AA2FB0312120902EB4202D1005B1A13F0FF0F02D100238DF8163000238DF866
:400540001E3008AB13E90F008DE80F000D4DAE6985E80F0000236B6102232B747569B36873B13DB90CE0996855F8240001F0B2FD013400E00024034B9B691A699442F2D391
:4005800008B070BD1481FF1F89888888ABAAAAAAF0B589B0174C04AE94E80F0086E80F000027ADF814704FF6FF73ADF81230ADF81C70ADF81A3096E80F008DE80F00A669B0
:4005C00084E80F006761022323747569B36873B13DB90CE0996855F8240001F07BFD013400E00024034B9B691A699442F2D309B0F0BD00BF1481FF1F70B598B0274B0FCBE8
:4006000018AC04E90F0005AC254D0FCD0FC40FCD0FC40FCD0FC495E8070084E807009DF824305BB94FF6FF73ADF854300022ADF85220ADF85C20ADF85A300CE0012B0AD17A
:400640000023ADF854304FF6FF72ADF85220ADF85C20ADF85A3001AC18AB13E90F0084E80F000E4DAE6985E80F0000236B6102232B747569B36873B13DB90CE0996855F82D
:40068000240001F027FD013400E00024034B9B691A699442F2D318B070BD00BF1481FF1FCC80FF1F70B588B0104C04AE94E80F0086E80F008DE80F00A66900236361022375
:4006C00023747569B36873B13DB90CE0996855F8240001F0FFFC013400E00024034B9B691A699442F2D308B070BD00BF1481FF1F70B588B01D4B0FCB08AC04E90F009DF822
:4007000016300133DBB28DF81630194AA2FB0312120902EB4202D1005B1A13F0FF0F02D100238DF81630FFF7BDFF08AB13E90F008DE80F000D4DAE6985E80F0000236B619E
:4007400002232B747569B36873B13DB90CE0996855F8240001F0BEFC013400E00024034B9B691A699442F2D308B070BD1481FF1FABAAAAAA70B588B01E4B0FCB08AC04E96E
:400780000F009DF81E300133DBB28DF81E301A4AA2FB03125209C2EB021291005B1A13F0FF0F04D100238DF81E30FFF7A1FFFFF779FF08AB13E90F008DE80F000D4DAE69E8
:4007C00085E80F0000236B6102232B747569B36873B13DB90CE0996855F8240001F07AFC013400E00024034B9B691A699442F2D308B070BD1481FF1F8988888830B591B06A
:4008000001AC0B4D0FCD0FC40FCD0FC40FCD0FC495E8070084E807009DF8143013B9FFF767FF03E0012B01D1FFF7A4FF11B030BDCC80FF1F2DE9F043DDB080460F46DFF854
:4008400004E24DAD74460FCC0FC50FCC0FC50FCC0FC594E8070085E807004FF000098DF834918DF8447102AD4DAE0FCE0FC50FCE0FC50FCE0FC596E8070085E80700DEF882
:4008800044C0764602AD0FCD0FC60FCD0FC60FCD0FC6CEF8409002238EF83C30DCF81450DCF8083073B13DB90CE0996855F8240001F010FC013400E00024624B5B6C1A6920
:4008C0009442F2D3002F5CD19DF848215CAB03F8782D5D480193CDF800800323024619462430FFF781FD574F20AD3C460FCC0FC50FCC0FC50FCC0FC594E8070085E8070050
:400900004DAD20AE0FCE0FC50FCE0FC50FCE0FC596E8070085E807009DF8F8308DF8483111AD4DAE0FCE0FC50FCE0FC50FCE0FC596E8070085E80700D7F844E03E4611AD2E
:400940000FCD0FC60FCD0FC60FCD0FC600233B64022387F83C30DEF81450DEF80830002B6CD03DB96AE0996855F8240001F0B2FB013400E00024334B5B6C1A699442F2D3F7
:400980005CE0012F5AD19DF85C215CAB03F8F02D2D480193CDF800800323024619462430FFF722FD274F3EAD3C460FCC0FC50FCC0FC50FCC0FC594E8070085E807004DAD0A
:4009C0003EAE0FCE0FC50FCE0FC50FCE0FC596E8070085E807009DF880308DF85C312FAD4DAE0FCE0FC50FCE0FC50FCE0FC596E8070085E80700D7F844E03E462FAD0FCD96
:400A00000FC60FCD0FC60FCD0FC600233B64022387F83C30DEF81450DEF8083073B13DB90CE0996855F8240001F054FB013400E00024044B5B6C1A699442F2D35DB0BDE88E
:400A4000F08300BFCC80FF1FE0350000F0B59FB0224F0FAD3C460FCC0FC50FCC0FC50FCC0FC594E8070085E8070003238DF850306D460FAE0FCE0FC50FCE0FC50FCE0FC570
:400A800096E8070085E80700D7F844E03E466D460FCD0FC60FCD0FC60FCD0FC600233B64022387F83C30DEF81450DEF8083073B13DB90CE0996855F8240001F00BFB013442
:400AC00000E00024054B5B6C1A699442F2D300210120FFF7AFFE1FB0F0BD00BFCC80FF1F08B500210420FFF7A5FE08BDF0B59FB0224F0FAD3C460FCC0FC50FCC0FC50FCCF7
:400B00000FC594E8070085E8070004238DF850306D460FAE0FCE0FC50FCE0FC50FCE0FC596E8070085E80700D7F844E03E466D460FCD0FC60FCD0FC60FCD0FC600233B6443
:400B4000022387F83C30DEF81450DEF8083073B13DB90CE0996855F8240001F0BBFA013400E00024054B5B6C1A699442F2D300210320FFF75FFE1FB0F0BD00BFCC80FF1F55
:400B800008B500210220FFF755FE08BDF0B59FB0254F0FAD3C460FCC0FC50FCC0FC50FCC0FC594E8070085E8070004238DF8503003238DF864306D460FAE0FCE0FC50FCE14
:400BC0000FC50FCE0FC596E8070085E80700D7F844E03E466D460FCD0FC60FCD0FC60FCD0FC600233B64022387F83C30DEF81450DEF8083073B13DB90CE0996855F82400A8
:400C000001F068FA013400E00024074B5B6C1A699442F2D300210120FFF70CFE01210846FFF708FE1FB0F0BDCC80FF1F08B501210420FFF7FFFD08BDF0B59FB0224F0FAD82
:400C40003C460FCC0FC50FCC0FC50FCC0FC594E8070085E8070004238DF864306D460FAE0FCE0FC50FCE0FC50FCE0FC596E8070085E80700D7F844E03E466D460FCD0FC657
:400C80000FCD0FC60FCD0FC600233B64022387F83C30DEF81450DEF8083073B13DB90CE0996855F8240001F015FA013400E00024054B5B6C1A699442F2D301210320FFF797
:400CC000B9FD1FB0F0BD00BFCC80FF1F08B501210220FFF7AFFD08BD08B501210846FFF7A9FD08BDF0B589B0174C04AE94E80F0086E80F000027ADF81470ADF81C704FF6E2
:400D0000FF73ADF81230ADF81A3096E80F008DE80F00A66984E80F006761022323747569B36873B13DB90CE0996855F8240001F0D1F9013400E00024034B9B691A6994423C
:400D4000F2D309B0F0BD00BF1481FF1F10B582B0064C074B01930090012304F14802032104F15400FFF740FB02B010BDE03500001883FF1F38B5134B988908B319461C899E
:400D8000631C9BB2104AA2FB03525209642505FB12330B810138888101EB44018B7B13B1012B04D006E0002001F0BCFC02E0012001F0B8FC034B03EB4404E07B01F066FCA0
:400DC00038BD00BF1C83FF1F1F85EB5130B5ABB01B4B9B89632B17D92AAD032305F8A83D184B1868CDF80100174C0FCCCDF81100CDF81510CDF81920CDF81D30284600F066
:400E0000CDFB6FF0070019E00D4D6C89621C92B205EB4404A073E1730C49A1FB02014909642000FB11226A8101339BB2AB81012B03D1FFF79FFF002000E000202BB030BDCF
:400E40001C83FF1F703C0000743C00001F85EB512DE9F04180460E4617461D462A210020FFF7B4FF00210120FFF7B0FF194C94F8D6104144C9B20120FFF7A8FF0021012086
:400E8000FFF7A4FF94F8D6103944C9B20120FFF79DFF2B210020FFF799FF00210120FFF795FF94F8D7103144C9B20120FFF78EFF00210120FFF78AFF94F8D7102944C9B293
:400EC0000120FFF783FF2C210020FFF77FFFBDE8F08100BF1C83FF1F10B5044636210020FFF774FF04F003002A4B83F8D80003284ED8DFE800F00215283BC2210120FFF7BC
:400F000065FF244BA022A3F8DA208022DA8093F8DC2083F8D62093F8DD2083F8D72010BDA2210120FFF752FF1A4BA022DA808022A3F8DA2093F8DC2083F8D72093F8DD2068
:400F400083F8D62010BD08210120FFF73FFF114BA022A3F8DA208022DA8093F8DC2083F8D62093F8DD2083F8D72010BD62210120FFF72CFF074BA022DA808022A3F8DA20DD
:400F800093F8DC2083F8D72093F8DD2083F8D62010BD00BF1C83FF1F024BA3F8DE00A3F8E01070471C83FF1F024BA3F8E200A3F8E41070471C83FF1F08B90120FFE7014B50
:400FC000187170471C83FF1F2DE9F0411F46BDF818501F4BB3F90630834236DD90461C4AB2F8DA20914230DA00EB0804013C9C4202DB1B1A0FFA83F87B18013B9A4201DC1A
:40100000571A3FB2C0B2C9B2CB19013B00EB0802013ADBB2D2B2FFF71BFF2E0AEDB2012001F080FB0FE031460220FFF7CFFE29460220FFF7CBFE013C24B200E04446002C48
:40104000F1DC013F3FB2002FF8DCBDE8F08100BF1C83FF1F00B583B0064AB2F9DA30B2F90620009000210846FFF7AEFF03B05DF804FB00BF1C83FF1FF8B5364B8022DA80D0
:40108000A022A3F8DA20002483F8D840A3F8DE40A3F8E04001251D714FF6FF72A3F8E220A3F8E4405D711C6083F8DD4083F8DC4083F8D64083F8D7401C815C819C8101F0C4
:4010C00023FB284601F03AFB642001F037FC204601F034FB642001F031FC284601F02EFB142001F02BFC29462046FFF76FFE322001F024FC11212046FFF768FE782001F082
:401100001DFC0F22144D14E02C4614F8021B0020FFF75CFE6A78254606E06E1C29780120FFF754FE22463546531EDCB2002AF4D13A46531EDFB2002AE6D10220FFF7CCFE28
:401140000020FFF787FF01F065FB642001F01CFBF8BD00BF1C83FF1F19370000002821DB114BB3F9063098421CDA00291ADB0E4BB3F8DA30994215DA10B51446C0B2C9B241
:401180004B1C421CDBB2D2B2FFF762FE012001F0C9FA210A0220FFF719FEE1B20220FFF715FE10BD704700BF1C83FF1FF8B51E46164BB3F90630834226DD1546134BB3F896
:4011C000DA30994220DA0A44013A934201DC5D1A2DB2C0B2C9B24B19013BDBB20246FFF737FE370AF6B2012001F09CFA08E039460220FFF7EBFD31460220FFF7E7FD25461C
:401200006A1E14B2002DF2D1F8BD00BF1C83FF1F2DE9F04F8BB00290039115460493BDF850709DF854A07F4B1A68002A40F09080B3F906300146834240F3F180794BB3F8E2
:40124000DA300398984280F2EA800AEB4A0253000B44012B00F1E38000EBCA03012B00F1DE804FF00008894683460595049E4EE0059B03EB830343446B4A134493F858505A
:4012800000243EE015F0010F1BD0BAF1010F09D104EB0B0108EB0900324609B200B2FFF75DFF2BE01FFA8AF00FFA8AF204FB00B108FB00900096134609B200B2FFF784FEEF
:4012C0001CE0BE421AD0BAF1010F09D104EB0B0108EB09003A4609B200B2FFF73FFF0DE01FFA8AF00FFA8AF204FB00B108FB00900097134609B200B2FFF766FE013464B211
:401300006D08072CBEDD08F101084FFA88F8B8F1040FADDD049BBB4200F08180BAF1010F08D1029805303B460822039900B2FFF73DFF74E01FFA8AF303EB8300029A1044F3
:401340000097DB005246039900B2FFF73DFE66E0137AEB1ADBB2506800EBC301D2F800B030F8337091F80280CB78079391F90530089391F906200992BAF1010F04D91BB2E1
:40138000059313B2069302E000230693059300231C46994640E05E1CF6B213F0070F03D17B1C1BF807409FB214F0800F27D0BAF1010F0DD1099B039A99184944089B029A4B
:4013C00098182844049A09B200B2FFF7C7FE16E0059B58191FFA8AF3069A02EB09010FFA8AFE039A01FB0321029A00FB0320049B00937246734609B200B2FFF7E5FD640083
:40140000E4B20135EDB2334600E000254545C2D309F101095FFA89F9079A9145F5D30BB0BDE8F08F1C83FF1F1837000070B582B04E4B1B68002B43D10A280BD14B4B002223
:40144000A3F8DE201979B3F8E02002EBC102A3F8E02088E00D2800F08680444B5B79ABB1424A117901EB41046300B2F8DE402344B2F90620934209DD3C4B0022A3F8DE2052
:40148000B3F8E02002EBC101A3F8E010374CB4F8E230B4F9E010B4F9DE5022790192B4F8E420009202462846FFF7B2FE237903EB43035A00B4F8DE301344A4F8DE3052E0AB
:4014C0000A280CD1294A0021A2F8DE10997A1079B2F8E03000FB0133A2F8E03043E00D2841D01A7A90423ED3597A88423BD8821A5C6804EBC204A278E1785AB351B394F9DC
:4015000005501A494979A9B118490E792A44B1F8DE5002FB0652B1F906108A420ADD134A0021A2F8DE109B7AB2F8E01006FB0316A2F8E0600D4AB2F8E230B2F9E010B2F9E0
:40154000DE5016790196B2F8E420009202462846FFF75EFE2179054B1879B3F8DE2000FB0122A3F8DE2002B070BD00BF1C83FF1F10B5044602E00134FFF758FF2078002866
:40158000F9D110BD014BB3F9060070471C83FF1F014BB3F9DA0070471C83FF1F10B50446013001F08DF9064801F08AF904F1110001F086F9034801F083F9002010BD00BF89
:4015C000983C0000843C0000F8B506460F46154600240DE006EBC4039A88B5FBF2F302FB13531BB956F83430002098470134A4B2BC42EFD30020F8BDF8B505460E4617467D
:40160000002409E005EBC4035868384202D055F8343098470134A4B2B442F3D30020F8BD2DE9F041A0B004468579B0F8048047880320FFF7C1FCFFF7A5FF0646FFF7A8FFFB
:4016400000EBD0703B4A82FB0632A2EBE67240F34F0110B2FFF7A0FC41463846FFF7A4FC354AA2FB0532D20802EB82014B00EB1A9BB23249684601F067FB6846FFF778FFDD
:401680002F4B1B7823B901222D4B1A703A2603E000222B4B1A7020260320FFF78DFCFFF771FF0546FFF774FF00EBD07005EBD57540F34F0145F34F00FFF76EFC00214FF680
:4016C000FF70FFF771FC32461E49684601F03CFB6846FFF74DFFA57BA78966890320FFF76BFCFFF74FFF4000174A82FB0032A2EBE074FFF74DFF00EBD07040F34F0120B27D
:40170000FFF74AFC39463046FFF74EFC0A4AA2FB0532D20802EB82014B00EB1A9BB20749684601F011FB6846FFF722FF002020B0BDE8F081ABAAAA2ACDCCCCCC9C3C000031
:401740000284FF1FA43C00005655555510B50446002303702B4A1388013399B211802A4BA3FB01239B0803EB8303CB1A9BB20BB904230370254AA2FB0132D2094FF4966397
:4017800003FB12139BB223B90523237000221D4B1A8001F0A7F8012802D10122194B5A8001F0A8F8012805D1164B01229A80DA880132DA8001F096F840B9124B5B88012B10
:4017C00004D1237000220F4B5A8019E001F092F8B0B90C4B9B88012B12D10A4BDB88132B06D802232370074B00229A80DA8007E0132B05D903232370024B00229A80DA80B2
:40180000002010BD0484FF1FCDCCCCCCB5814E1B0C4B1B6C034413F1011F01D8094A1364084BDB6D034413F1011F01D8054AD365044B9B6F184410F1011F01D8014B9867F9
:40184000704700BFCC80FF1FFEE700BFF0B40022174611E050F82760F3B226F0FF0608E001EB420511F812406D78A5550132013BDBB2002BF4D10137162FEBD9F0BC70475C
:40188000064B1B78DBB203F00701054A11701B09013213704422034B1A707047CF0100496E5800407658004008B50A46002101F042FA08BD38B50024284B1C805822023301
:4018C0001A70192502331D801823254A137041F2BF2102321180023213700222214B1A7008224FF040231A70032103F5007319701D4B1B78DBB21D490B701D4B1A8041F26C
:401900005122023B1A800CE01A4B1B7803F0010343EA440404F003044FF4F07001F0E8F8013D0DB1032CEFD115B90320FFF78CFF114B4FF480721A8007221A7000220F49E9
:401940000A704820023108701A700222033B1A700B4A137843F00703137038BD80400040864000400043004008010049A14600402242004025420040044000400640004078
:40198000A243004008B501F0CBF908BD38B572B6364A137843F00403137000240CE0344D630019194A0011462A44084691882858FFF77AFF0134E4B2092CF0D900240CE08A
:4019C0002B48A20011194B000344B3F84420196CD86BFFF7D7FF0134E4B2012CF0D925494FF09040FFF732FF234A137843F0020313701032137843F0020313701F4C2378CD
:401A000043F040032370A2F58632513A137843F01003137008221A491A48FFF7B3FF0A2219491A48FFF7AEFF082219491948FFF7A9FF082218491948FFF7A4FF184A137848
:401A400043F008031370174D61232B70FFF732FF81232B700122144B1A70FFF711FF0E2221461248FFF78EFF38BD00BFE8460040243D00005C00004803500140A043004058
:401A80003C0500480251004044050048C051004050050048125100405805004832510040224300400048004004000840B043004008B501F009F903680C2B00D1FEE7FEE7E7
:401AC00008B5094B1A681044084BC31A802B02DC054B186005E001F0F7F80C2303604FF0FF32104608BD00BF4C81FF1FB8A6FF1F08B5104E104D16E029686B68AC6800226E
:401B000004E051F8040B43F8040B0432A242F8D1E868002203E0002143F8041B04328242F9D11035013E002EE6D101F0D3F8FEF703FBFEE7010000000440000008B5104A4F
:401B4000104B1A60104A136843F40073136000230AE0032B03D80D4A52F8231000E00C490C4A42F8231001332F2BF2D90A4B1A780A4B1A70074A0A4B1A60FFF707FF08BDBC
:401B80000004FA050CED00E014ED00E000000000B11A00000080FF1FBC760040C080FF1F08ED00E038B5EFF3108572B604284ED82D4B53F82030002B4BD02B4A013B42F838
:401BC00020302A4B53F82030032B07D10222274B43F820200022264B43F8202000F03EFC244B1B68002B36D1234B1C6800F014FCB0F1FF3F31D0214B53F82020204B1B685B
:401C00009A422CD9B4F1FF3F03D00221174A42F824101C4A52F820201343194A13600022124B43F8202000F0B3FB174B53F820304BB10024144B43F8204040F0004000F0F0
:401C4000E3FE20460CE000F0DFFE002008E0032006E0042004E0002002E0002000E0002085F3108838BD00BF9881FF1F4482FF1F3484FF1F7084FF1F2C82FF1FF83E000060
:401C80005084FF1FDC3E00000C84FF1FF8B5EFF3108472B628BB00EB4005AB00184DEB5803EB4306B500174E75598D421BD34AB103EB43039E00134B1E44B3689A4214D372
:401CC000954214D3A9B103010F4DEB589BB90301EE180127EF507260013900F087F800200AE0032008E0082006E0082004E0082002E0082000E0072084F31088F8BD00BFFE
:401D0000943E0000A83E0000A084FF1F18B108B5C368984708BD704708B508B1406800E00020042816D80C4B53F8203093B10A4A013B42F82030094B53F82030032B07D120
:401D40000222064B43F820200022054B43F8202000F084FB08BD00BF9881FF1F4482FF1F3484FF1F18B1034640689B6801E00023184604281DD80F4A52F82020CAB10E4AAC
:401D800052F82010032914D010B50C4C54F820201A4344F820200A4A52F82020134207D0012905D10222044B43F8202000F056FB10BD7047B43E00004482FF1F3484FF1FAE
:401DC0002084FF1F80B108B50378012B06D013B1032B06D008BDFFF79FFF08BDFFF7C2FF08BDFFF793FF08BD704700BF30B400EB40029300214AD258214B03EBC2035C6875
:401E0000B4F1FF3F04D11E4B03EBC20250602DE01C4B03EB04139B6899420AD2184D05EBC2025060174A02EB04125B1A93601DE01C46144B03EB04139A68891ADB68B3F108
:401E4000FF3F05D00F4A02EB031292689142EFD2B3F1FF3F05D00B4A02EB031295686D1A9560084A02EB0414E0601C46054B03EB00108160C46030BC704700BF943E00005F
:401E80005481FF1FA084FF1F38B5394A02EBC0035C6852F83030013342F8303000EB40018A0034498A58934203D90022304B43F83020B4F1FF3F59D02F4B03EB04139B6815
:401EC000002B4ED1214600E019462B4B03EB0113DB68B3F1FF3F05D0274A02EB03129268002AF1D0244A02EB01114FF0FF32CA601F4A02EBC0004360B3F1FF3F07D01E4A47
:401F000002EB03139A68013A9A6000E02C4604EB44029300194A13441B7A7BB904EB44029300164A13445A68154B53F8223003EB83039A0013481044FFF744FF0E4B03EB4F
:401F40000413DD68596821B101392046FFF74EFF03E024010022084B1A51B5F1FF3FD5D138BD054A02EB0414013BA36038BD00BF5481FF1FA83E0000A084FF1F943E0000F4
:401F8000A43E0000803E000038B5EFF3108572B6002838D1FFF778FF204B1B68002B34D11F4B1C6800F038FAB0F1FF3F2FD01D4B53F820201C4B1B689A422AD9B4F1FF3FAC
:401FC00003D00221194A42F82410194A52F820201343154A13600022144B43F8202000F0D7F9144B53F820304BB10024114B43F8204040F0004000F007FD20460AE000F094
:4020000003FD002006E0032004E0002002E0002000E0002085F3108838BD00BF7084FF1F2C82FF1FF83E00005084FF1F4482FF1FDC3E00000C84FF1FEFF3108372B6114A03
:402040001168114A126882B9B1F1FF3F0FD00F4A52F821206AB110B40D4C54F8212022EA000044F82100002007E0022002E0022000E0012083F31088704783F3108810BC39
:40208000704700BF2C82FF1F7084FF1FB43E00003484FF1F04280FD80B4B53F820306BB10A4B53F82030032B0AD059B1084B53F820300B6000207047032070470120704700
:4020C000072070470E207047B43E00004482FF1F3484FF1F38B5EFF3108472B6042853D8324B53F82030002B50D0314B53F82030032B4DD02F4D55F820200A4345F82020F7
:402100002D4A52F82020114244D0012B44D10222274B43F8202000F0A1F9284B1B68002B3CD1274B1D6800F077F9B0F1FF3F37D0244B53F82020244B1B689A4232D9B5F177
:40214000FF3F03D002211A4A42F825101F4A52F8202013431C4A13600022154B43F8202000F016F91A4B53F820304BB10025184B43F8205040F0004000F046FC284612E009
:4021800000F042FC00200EE003200CE001200AE0072008E0002006E0002004E0002002E0002000E0002084F3108838BDB43E00004482FF1F3484FF1F2084FF1F7084FF1F0A
:4021C0002C82FF1FF83E00005084FF1FDC3E00000C84FF1F38B5EFF3108472B6364B1D68364B1B68002B5DD1B5F1FF3F5CD0344B53F82530002B59D0324B53F82530034250
:4022000056D1314B43F825000122304B43F825202F4B53F825002F490B6823EA00030B602D4B43F825202D4B53F82520224B1A6000F0F2F8B0F1FF3F06D0294B53F82020B8
:40224000244B1B689A420DD81B4B1868B0F1FF3F03D000221D4B43F8202040F0004000F0D3FB1AE00021194A42F82010184A52F820201343174A136000F08AF8164B53F8C4
:40228000203043B10022144B43F8202040F0004000F0BAFB01E000F0B7FB00200A4B43F8250006E0022004E0022002E0012000E0002084F3108838BD2C82FF1F7084FF1F7E
:4022C000B43E00003484FF1F2084FF1F4482FF1FDC3E00005084FF1F0C84FF1F3082FF1FF83E000008B500F053F8084B53F8203043B10022054B43F8202040F00040044B2A
:40230000186008BD024B186008BD00BF0C84FF1F7484FF1F10B500F07FF8124B1B68B0F1FF3F1AD0104A52F82010104A1268914213D9B3F1FF3F03D002240D4941F823404A
:4023400000210B4B43F820100A4B53F820301A43064B1A60FFF7C6FF10BD43F00043064A136010BD2C82FF1FF83E00005084FF1F4482FF1FDC3E00007484FF1F034B1B68FC
:4023800013B10022014B1A60704700BF6484FF1FF0B4184B19880B0A174AD356B3F1FF3F01D1535601E008335BB2144D55F82320134850F82200134E56F8224045F82340C1
:4023C000114D2F6846F822702A60B4F1FF3F09D10E4A42F82340012202FA03F321EA0301044B19800A4B19680A4A42F820101860F0BC70474C84FF1F743D0000EC81FF1F37
:402400007884FF1F7081FF1F4884FF1FAC81FF1F2C82FF1F3082FF1F0C4B1A88130A0C49CB56B3F1FF3F01D18B5601E008335BB2B3F1FF3F06D0074A52F82320064B53F826
:40244000220070474FF0FF30704700BF4C84FF1F743D0000EC81FF1F7884FF1F30B4144B53F82020134C2368134951F823502560124C44F823004FF0FF3441F823401049E2
:4024800051F82210A1420AD10E4951F820400E480188214301800D4941F8223002E0064840F82130064941F8223030BC704700BF8481FF1F4884FF1F7081FF1F7884FF1F13
:4024C000AC81FF1FF83E00004C84FF1FEC81FF1F10B150F8210070474FF0FF30704700BF0122014B1A60FEE76C84FF1F70B50546124B53F8306000241CE0104B03EBC50368
:4025000021465868FFF7E4FF0D4A52F82030013B42F820300B4B53F82030032B07D10222084B43F820200022074B43F82020FFF795FF0134B442E0D370BD00BF743E000006
:402540009881FF1F4482FF1F3484FF1F18B908B5FFF7CCFF08BD7047194B1A4ADA621A4A9A631A4ADA63EFF3108272B6184B1B6813BB10B5044600F053F8164B1C600122FF
:40258000134B1A602046FFF7E1FFFFF745FFB0F1FF3F0ED0104B53F82030104A11680B43136000220E4B43F82020FFF7F1FE00F02BFA62B6FFF794FF82F31088072070470A
:4025C0000080FF1FC92900008D290000910000006C84FF1FB084FF1FDC3E00005084FF1F4482FF1F08B5EFF3108272B6094B1968094B1B6833B94FF0FF30084B43F82100A6
:40260000002000E0022010B9084600F056FA82F3108808BD2C82FF1F7084FF1F5C81FF1F10B5EFF3108472B600F09EF9034A136843F07F43136084F3108810BD20ED00E093
:4026400008B500F05DFA0A4A137843F0200313700332137843F010031370013A137843F01003137000F050FA00F04CF908BD00BF98640040014B1878704700BF6B640040F6
:40268000014B1878704700BF6A640040034B1B7813F0040FFAD0024B187070476B6400404864004008B501E00A4B1B780A4B1B7813F0200FF8D100F023FA084B1A7842F0E5
:4026C00001021A701A7802F0FE021A7000F01CFA08BD00BF586400406A6400409864004008B50F22064B1A70FFF7DCFFFFF7C2FFFFF7C6FF0023034A1370013A137008BDED
:40270000886400408B64004008B5054B1B7823B9FFF7E6FF0122024B1A70FFF791FF08BD5884FF1F044A137803F0F703C00000F00800184310707047C0510040044A13786E
:4027400003F0EF03000100F0100018431070704730510040084A137843F0010313701032137843F00103137002F64D32137843F001031370704700BFA3430040014B1880C6
:40278000704700BF044F0040014B1880704700BF064F0040014B1870704700BF034F004008B5194A137843F0020313700232137803F08F0343F010031370144B1A7802F0EF
:4027C000CF021A701A7842F030021A701A7802F0F0021A701A7842F00F021A706420FFF7CDFF0020FFF7D0FF0020FFF7D3FF084A137843F00103137002F65E32137843F0AF
:402800000103137008BD00BF004F00400B4F0040A343004008B5054B1B7823B9FFF7C0FF0122024B1A70FFF795FF08BD5984FF1F7222074B1A702022023B1A7006225E3B8F
:402840001A70472210331A7000224F331A7070478A65004010B500F053F904460A4A137843F020031370023A137843F0100313700132137843F01003137000F051F82046CB
:4028800000F042F910BD00BF9A65004008B5054B1B7823B9FFF7CCFF0122024B1A70FFF7D9FF08BD5A84FF1F034B1B7813F0040FFAD1024B18707047696500404A64004012
:4028C00038B5074B1B782BB938BDFFF7EDFF0134A4B201E005460024285D0028F5D138BD5A84FF1F024B1878C0F3C000704700BF01510040024B1878C0F30010704700BF9E
:4029000001510040054A137843F0010313701032137843F001031370704700BFA2430040054A137843F0020313701032137843F002031370704700BFA243004010B5044688
:4029400005E0084B186800F0D3F8A4F50044B4F5004FF6D8034B586800FB04F000F0C8F810BD00BF8082FF1F18484FF47F0102680A43026016486FF07F4102680A40026019
:40298000704714484FF080510160704772B611484FF000610160FFF7BDFC0F48006800F0D3F858B10C4800684FF080730B4A0C490FB40FB46FF00600004700BF6FF006003A
:4029C00062B6004762B600DF08B0704720ED00E01CED00E004ED00E07484FF1F092A0000C5290000EFF30880054908600548006880F3088870470248006880F30888704739
:402A00009082FF1F7482FF1F411C8900154A11440968154A136899421AD0F0B444464D4656465F46F0B400B5104C9B002344EFF308851D60116089002144096881F308882F
:402A400002BC8E46F0BCA046A946B246BB46F0BC002806DB00B500F06BF802BC8E46FFF7D3BF7047343F00005484FF1F7882FF1FF0B444464D4656465F46F0B400B5EFF3FE
:402A8000038308B48000174901440968164A0244EFF30883136088471448804704BC4FF08070024382F3038801BC8646F0BCA046A946B246BB46F0BC704780000A49014414
:402AC0000A6882F3088804BC4FF08070024382F3038808BC9E46F0BCA046A946B246BB46F0BC70470C3F00008C84FF1F112B00000230800803D000BF01380046FCD17047A2
:402B0000EFF3108072B6704780F31088704700BF08B572B6014B1868FFF7CFFF2C82FF1F08B5024B1868FFF7A3FF08BD2C82FF1F08B562B6FFF7F4FF72B600F041F8014B74
:402B4000186808BD7484FF1F00280BDA20F000400130054B53F82000044B1B68181A18BF0120704701207047343F00005484FF1F054B53F82020054B53F820309A4201D149
:402B800001207047002070479881FF1FC83E000008B5FFF7FDFB084B53F8203043B10022054B43F8202040F00040044B186008BD024B186008BD00BF0C84FF1F7484FF1FA6
:402BC00038B5364B1C680022354B1A60354A52F82430013342F82430334B53F824502046FFF7C6FF012801D0A54204D103222F4B43F8242003E002222C4B43F824202C4B42
:402C000053F824102B4A136823EA010313602A4B53F82440214B1C60B5F1FF3F0FD0234B53F82530032B07D10222204B43F825200022224B43F825202846FFF70FFCFFF73B
:402C4000EBFBB0F1FF3F0BD1B4F1FF3F03D00022164B43F8242044F00044194B1C6038BD184B53F82020134B1B689A4208D800220E4B43F8242044F00044114B1C6038BDE4
:402C800000210A4A42F82010094A52F820201343084A1360FFF77CFF38BD00BF2C82FF1F6484FF1F9881FF1F5C81FF1F4482FF1FDC3E00005084FF1F3082FF1F3484FF1F7E
:402CC0007484FF1FF83E0000014B1868704700BFF482FF1F0E4B70B51E460E4C0025E41AA410A54204D056F8253098470135F8E701F076F9084B094C1E46E41AA41000250A
:402D0000A54204D056F8253098470135F8E770BDEC3F0000EC3F0000EC3F0000F43F000010B5431E0A44914204D011F8014B03F8014FF8E710BD03460244934202D003F8C8
:402D4000011BFAE7704700000EB400B54FF402719CB0ADF814106FF00041049107914FF6FF711DAB02900690084853F8042BADF81610006802A9019300F064F8029B0022A4
:402D80001A701CB05DF804EB03B07047F482FF1F2DE9F0478E6882469E420C46914698463ED88A8912F4906F3AD02568096902236F1A656905EB450595FBF3F57B1C434406
:402DC0009D4238BF1D4653050FD5294600F040FB064698B13A462169FFF7A2FFA38923F4906343F08003A38113E02A4600F08EFB064670B92169504600F0DEFA0C23CAF854
:402E00000030A3894FF0FF3043F04003A381BDE8F08726613E44266046466561ED1BA560464528BF464649463246206800F0A8FAA36800209B1BA36023681E442660BDE809
:402E4000F08700002DE9F04F9DB003938B8980461C060D4616460DD50B695BB9402100F0F7FA2860286118B90C23C8F80030CDE040236B610023099320238DF82930DFF8B8
:402E80009CB130238DF82A3037463C4614F8013B1BB9B7EB060910D003E0252BF9D02746F3E74B46324629464046FFF771FF013000F0A780099B4B4409933B78002B00F05B
:402EC000A08000234FF0FF3204930793059206938DF853301A930126052221784E4800F041FA671C049B38B14B4A3C46801A06FA00F018430490EFE7D90644BF20228DF847
:402F000053201A0744BF2B228DF8532022782A2A03D0079A00210A200BE0039A111D12680391002A10DA524243F00200079204900BE027463B780134303B092B03D800FB85
:402F400002320121F5E701B107923B782E2B1ED17B782A2B0AD1039B02371A1D1B680392002BB8BF4FF0FF33059310E0002319460593781C0A2407463A780130303A092A4C
:402F800003D804FB01210123F5E703B1059103223978224800F0E6F940B14023CBEB000003FA00F0049B013718430490397806221B487E1C8DF8281000F0D4F988B1194B12
:402FC00033B9039B073323F007030833039314E003AB00932A46144B04A94046AFF3008007E003AB00932A460F4B04A9404600F093F8B0F1FF3F824603D0099B53440993D5
:4030000042E7AB895B0601D4099801E04FF0FF301DB0BDE8F08F00BFAA3F0000B03F0000B43F000000000000912D00002DE9F04791461F460A698B6806469342B8BF1346F4
:40304000C9F8003091F843200C46DDF8208012B10133C9F800302368990642BFD9F800300233C9F80030256815F0060510D104F1190A07E00123524639463046C04701300C
:403080001AD00135E368D9F800209B1A9D42F1DB94F843302268003318BF012392060FD5E118302081F843005A1C94F845102244023382F8431003E04FF0FF30BDE8F087F0
:4030C00004F1430239463046C0470130F4D02268D9F80050E36802F00602042A08BF5D1B2269A3680CBF25EAE57500259342C4BF9B1AED184FF000091A344D4509D0012322
:40310000224639463046C0470130D5D009F10109F3E70020BDE8F0872DE9F04317460A7E85B06E2A984606460C460C9B01F1430E00F0AE8011D8632A22D009D8002A00F059
:40314000BB80582A40F0CA8081F84520834955E0642A1ED0692A1CD0C0E0732A00F0B08009D86F2A2ED0702A40F0B8800A6842F020020A603EE0752A24D0782A3AD0ADE04D
:403180001A6801F14205111D1960136884F84230A8E021681A6811F0800F02D0111D196008E011F0400F02F10401196002D0B2F9003000E01368002B3CDA2D225B4284F84E
:4031C000432037E021681A6811F0800F02D0111D196007E011F0400F02F10401196001D0138800E01368227E5C496F2A14BF0A2208221BE078225A4984F8452022681868A8
:4032000012F0800F00F104051D6003D1550601D5038800E00368D00744BF42F0200222601BB9226822F0200222601022002084F8430001E049490A226568002DA56008DB55
:40324000206820F0040020602BB9002D7DD175460CE0002B79D07546B3FBF2F002FB1033CB5C05F8013D03460028F5D1082A0BD12368DA0708D5236962689A42DEBF30231B
:4032800005F8013C05F1FF35C5EB0E0323612EE008681A6810F0800F496903D0101D1860136808E010F0400F02F104001860136801D0198000E0196000232361754616E0F5
:4032C0001A68111D1960156800216268284600F049F808B1401B6060636804E004F1420584F8422001232361002384F84330CDF800803B4603AA21463046FFF797FE01303B
:4033000002D14FF0FF3026E023692A4639463046C0470130F5D023689B0710D5002504F1190907E001234A4639463046C0470130E7D00135E368039A9B1A9D42F2DBE068C4
:40334000039B9842B8BF184605E00B7804F1420584F842308AE705B0BDE8F083BB3F0000CC3F000010B5C9B202449042034605D01C7801308C42F8D1184610BD002010BD41
:40338000884210B501EB020301D8421E0BE09842FBD28118D21AD34204D013F8014D01F8014DF8E710BD994204D011F8014B02F8014FF8E710BD000038B50546002944D099
:4033C00051F8043C0C1F002BB8BFE41800F0D4F81E4A1368114613B96360146030E0A3420DD92268A018834201BF18685B681218226063600C6023E0A24203D813465A68E5
:40340000002AF9D118681918A1420BD12168014458188242196013D110685268014419605A600DE002D90C232B6009E021686018824201BF106852680918216062605C60DD
:403440002846BDE8384000F098B838BD6084FF1F70B5CD1C25F0030508350C2D38BF0C25002D064601DBA94202D90C23336046E000F082F8234B1C681A462146A1B10B68D6
:403480005B1B0ED40B2B03D90B60CC18CD501EE08C420BBF63684B681360636018BF0C4615E00C464968E9E7174C23681BB9304600F052F820602946304600F04DF8431C90
:4034C00018D0C41C24F00304A0420DD12560304600F053F804F10B00231D20F00700C31A0ED05A42E25070BD211A304600F034F80130EBD10C233360304600F03EF80020AE
:4035000070BD00BF6084FF1F5C84FF1FF8B5074615460E4621B91146BDE8F840FFF798BF1AB9FFF749FF2846F8BD00F027F885420ED929463846FFF78BFF044650B131467B
:403540002A46FFF7EDFB31463846FFF735FF01E03046F8BD2046F8BD38B5064C0023054608462360FEF7ACFA431C02D1236803B12B6038BDB4A6FF1F7047704751F8040C6E
:403580000028BEBF091851F8043CC0180438704700000000202020456C656374726F6E696320436C6F636B2020200000496E76616C696420696E707574206461746100004C
:4035C000CD01000001000000010000007502000032000000FD010000FA0000000200000003000000A50600000000000004000000A50600000000000005000000A50600004B
:403600000000000003000000943600000100000004000000703600000300000005000000583600000200000000000000A50600000000000000000000003700000200000096
:4036400001000000D03600000400000002000000A0360000040000000204000000000000FD0700000405000000000000FD0700000204000000000000FD070000030500003A
:4036800000000000000000000103000000000000910500000104000000000000F90500000100000000000000D90C00000202000000000000CD0C00000302000000000000A5
:4036C000390C000004020000000000002D0C000001020000000000008D0B00000201000000000000810B00000301000000000000ED0A00000401000000000000E10A000031
:4037000001010000000000004D0A00000500000000000000E50400000FB103053C3CB203053C3CB306053C3C053C3CB40103C003280804C101C0C2020D00C3028D2AC402D9
:403740008DEEC5011A3601C0E0100422070A2E30252A28262E3A00010313E10F16060D2D26232727252D3B000104133A0105290000000000003E5B4F5B3E3E6B4F6B3E1C2D
:403780003E7C3E1C183C7E3C181C577D571C1C5E7F5E1C00183C1800FFE7C3E7FF0018241800FFE7DBE7FF30483A060E2629792926407F050507407F05253F5A3CE73C5A1B
:4037C0007F3E1C1C08081C1C3E7F14227F22145F5F005F5F06097F017F006689956A606060606094A2FFA29408047E040810207E201008082A1C08081C2A08081E101010A3
:40380000100C1E0C1E0C30383E3830060E3E0E06000000000000005F00000007000700147F147F14242A7F2A12231308646236495620500008070300001C224100004122B7
:403840001C002A1C7F1C2A08083E080800807030000808080808000060600020100804023E5149453E00427F400072494949462141494D331814127F1027454545393C4AE1
:4038800049493141211109073649494936464949291E0000140000004034000000081422411414141414004122140802015909063E415D594E7C1211127C7F494949363E89
:4038C000414141227F4141413E7F494949417F090909013E414151737F0808087F00417F41002040413F017F081422417F404040407F021C027F7F0408107F3E4141413EBD
:403900007F090909063E4151215E7F09192946264949493203017F01033F4040403F1F2040201F3F4038403F631408146303047804036159494D43007F414141020408102D
:4039400020004141417F04020102044040404040000307080020545478407F284444383844444428384444287F385454541800087E090218A4A49C787F0804047800447DF3
:4039800040002040403D007F1028440000417F40007C047804787C080404783844444438FC1824241818242418FC7C08040408485454542404043F44243C4040207C1C2014
:4039C00040201C3C4030403C44281028444C9090907C4464544C4400083641000000770000004136080002010204023C2623263C1EA1A161123A4040207A385454555921FA
:403A0000555579412254547842215554784020545579400C1E5272123955555559395454545939555454580000457C410002457D420001457C407D1211127DF0282528F05F
:403A40007C545545002054547C547C0A097F4932494949323A4444443A324A4848303A4141217A3A42402078009DA0A07D3D4242423D3D4040403D3C24FF2424487E4943BA
:403A8000662B2FFC2F2BFF0929F620C0887E090320545479410000447D413048484A32384040227A007A0A0A727D0D19317D2629292F28262929292630484D40203808086F
:403AC000080808080808382F10C8ACBA2F102834FA00007B000008142A142222142A14085500550055AA55AA55AAFF55FF55FF000000FF00101010FF00141414FF00101012
:403B0000FF00FF1010F010F0141414FC001414F700FF0000FF00FF1414F404FC141417101F10101F101F1414141F00101010F0000000001F101010101F10101010F01000F2
:403B40000000FF101010101010101010FF10000000FF140000FF00FF00001F10170000FC04F414141710171414F404F40000FF00F714141414141414F700F714141417140B
:403B800010101F101F141414F4141010F010F000001F101F0000001F14000000FC140000F010F01010FF10FF141414FF141010101F00000000F010FFFFFFFFFFF0F0F0F03B
:403BC000F0FFFFFF0000000000FFFF0F0F0F0F0F3844443844FC4A4A4A347E02020606027E027E0263554941633844443C04407E201E2006027E020299A5E7A5991C2A4978
:403C00002A1C4C7201724C304A4D4D303048784830BC625A463D3E494949007E0101017E2A2A2A2A2A44445F444440514A444040444A51400000FF0103E080FF0000080891
:403C40006B6B083612362436060F090F06000018180000001010003040FF0101001F01011E00191D1712003C3C3C3C000000000054465400427566666572206F7665726682
:403C80006C6F77000A00000055415254207374617274656400000000203A20002564256400000000256300000000000021160000000000000000000000000000000000000A
:403CC00000000000000000000000000000000000000000000000000000000000000000000000000000000000000000000000000000000000000000004D1700000000000060
:403D0000010000000000000001000000203D00000000000000000000000000000000000003000000004F00400C00205100401000405100403000F0510040100000000140F2
:403D4000000880080140800700140140000800400140000A004C0140000200500140200060520040B4040048060000080140BC0400488000FF0001010202020203030303E5
:403D800003030303040404040404040404040404040404040505050505050505050505050505050505050505050505050505050505050505060606060606060606060606CF
:403DC0000606060606060606060606060606060606060606060606060606060606060606060606060606060606060606060606060606060607070707070707070707070737
:403E000007070707070707070707070707070707070707070707070707070707070707070707070707070707070707070707070707070707070707070707070707070707C2
:403E400007070707070707070707070707070707070707070707070707070707070707070707070707070707070707070707070707070707010000007C3E0000000000001B
:403E800003000000000000000000000029010000FFFFFFFF000000000000000000000000000000000000000070110100010000000100000000000000000000000000000055
:403EC00001000000000000000100000001000000010000000100000001000000800000000200000020000000100000000800000001000000020000000100000002000000FC
:403F000020000000100000000800000061010000C90100008503000059030000B1030000212B0000212B0000212B0000212B0000212B000000000000000000000000000009
:403F4000000000000100000000000000616C61726D5F316D7300000065765F6F6E4461746100000065765F316D696E0074736B5F696E69740000000074736B5F6261636BDC
:403F800067726F756E64000074736B5F696F000074736B5F636F6E74726F6C0074736B5F73797374656D00004300232D302B2000686C4C00656667454647003031323334B5
:403FC0003536373839414243444546003031323334353637383961626364656600000000F8B500BFF8BC08BC9E4670474D0000003D1B0000F8B500BFF8BC08BC9E46704714
:404000002900000018400000C880FF1F30020000C0230000000000000000000000000000000000000000000000000000000000000000000000000000000000000000000084
:404040000000000000000000000000000000000000000000000000000000000000000000F83C0000000000000000000000000000000000000000000000000000D03C000000
:40408000000000000000000000000000000000000000000000000000A83C0000B8A6FF1F4C3F000000000000FFFFFFFFFFFFFFFFFFFFFFFFFFFFFFFFFFFFFFFFFFFFFFFF2D
:4040C00001000000020000000300000004000000FFFFFFFF00000000010000000500000004000000030000000100000001000000010000000100000001000000FFFFFFFFAC
:40410000FFFFFFFFFFFFFFFFFFFFFFFFFFFFFFFFFFFFFFFFFFFFFFFFFFFFFFFFFFFFFFFFFFFFFFFFFFFFFFFFFFFFFFFFFFFFFFFFFFFFFFFFFFFFFFFFFFFFFFFFFFFFFFFFBF
:40414000FFFFFFFFFFFFFFFFFFFFFFFFFFFFFFFFFFFFFFFFFFFFFFFFFFFFFFFFFFFFFFFFFFFFFFFFFFFFFFFFFFFFFFFFFFFFFFFFFFFFFFFFFFFFFFFFFFFFFFFFFFFFFFFF7F
:40418000FFFFFFFFFFFFFFFFFFFFFFFFFFFFFFFFFFFFFFFF0300000003000000030000000300000003000000583F0000643F00006C3F0000783F0000883F0000903F0000D2
:4041C0009C3F0000B4A6FF1F000000008CA4FF1F0000E02EC05D00001800000000366E01000000000000000000000000000000000000000000000000000000000000000036
:4042000000000000A83F0000000000000000000000000000000000000000000000000000000000000000000000000000000000000000000000000000000000000000000097
:40424000000000009482FF1F00000000000000000000000000000000000000000000000000000000000000000000000000000000000000000000000000000000000000000A
:4042800000000000000000000000000000000000000000000000000000000000000000000000000000000000000000000000000000000000000000000000000000000000FE
:4042C00000000000000000000000000000000000000000000000000000000000000000000000000000000000000000000000000000000000000000000000000000000000BE
:40430000000000000000000000000000000000000000000000000000000000000000000000000000000000000000000000000000000000000000000000000000000000007D
:40434000000000000000000000000000000000000000000000000000000000000000000000000000000000000000000000000000000000000000000000000000000000003D
:020000040003F7
:0200000480007A
:40000000024F004001640040036500400404014001050140010701401108014044090140540A0140320B014047180140371901405D1A01404B1B0140044201400543014064
:4000400002440140014501400146014002470140024C01400A4D01400450014001200A4B880F8838890F8A7238083E0458045F011B04AB048C138E04940A961498139A0C6D
:40008000A403A614AA15AE08B010B40FBA20BE01D804DC01DF010040048605100A080B100E280F021030111012021404160217151A481C041D801E82240A255826142720A6
:4000C0002C042F82372539303C083DA03E0245A84C044F0655025640570667806C406F957602904091809310948895309608970499109A049D809E429F15A024A120A2024F
:40010000A502A645A70CB102B320B708C0F1C2E6C4F7CAB0CCE0CEF0D070D220D880030C04DC052C0622074309800B130C0C0E711410157116AC17061A032014241026406F
:400140002A202B082C092D712ED02F0E30E031C0330F341F373039823A023B083F4040324104450C460B470E481549FF4AFF4BFF4EF04F44500C5440580459045A045B0421
:400180005C115D015F0166C06A406B02828084628501861488428A088C8D904098119A229C029E0DA00DA280A48DA88DAC8DB280B470B501B60FBAA0BE04BF10D409D804F9
:4001C000D904DB04DF010040010404880510064009080A040D020E091080111012121602171518401A041B011C081D341E0121452202231027082A102B0931083204392E83
:400200003E04404041184820508052045E825F246104624063086580C0F5C2D6C4FFCA0CCC02CE47D007D6F0D81E040E0508070308940A690B041455150916AA1833190805
:400240001AC41B031C201ED01F0227043103320F3304350836F038083A803F145418580459045B045D105F01804482208301841C850286C28AC38B018CC78D048E1890DF34
:40028000941898089B049D049E04A010A4C0A880ACDCAE01AF04B0D8B104B21FB302B501B620B902BA0ABB80BF14D401D804D904DB04DC11DD10DF01004201280514090852
:4002C0000A850E2A10811108120818C019081A211D041E021F40210122442304276828012F2032503614374038A039063A043C083E1058125A485F01668067048C049004DE
:400300009180924095209780981099109A049D80A004A214A708C06FC2EFC40FCA48CC7CCE6FD68FD830000C021205F8061209F80C120D070E0C101E140E15941610172862
:40034000180419011B061C0C1D072008214A233024012706280129262BC02C012D012F063101320E3318340135E0361C37063A803F014001470449FF4A074BFF4C404D20B7
:400380004EF04F05500856025713580459045A045B045C115D115F01604061A862406320830287019702B103BF01C056C104C203C401C50EC6C0C809C9FFCAFFCBFFCC62E0
:4003C000CDA0CEF0CF41D00CD904DA04DD01DF01E640E702E910EA30EB10ED10EE10EF120044038008800AA410801154180419601A181B90220923052780280129402A0238
:400400002B1430403258360838C039143B403D083E323F0C41404440462047804C104E044F405110530857205A026954708471087204834088018A028C849080918092A0AC
:4004400094209520961497019B409C019D20A481A50CA608A728AC02AD04B180B308B680B720C00DC20FC40FCA0FCC4ECECED0D8D230D601E40153086280D420D6401B0821
:40048000A708AA80C610EE207B02DC01A702A702B702EC028E20E402104072207C80808088409A20C408DC01DE04E20100030C0310031C031034000040000000049A000064
:4004C00001FC0003562109D8843800C0009800020A0210980713386460000000049A8000800004008498000284020000080000137F0F80E0200000A00000410062031000FF
:4005000000BE0DCF37FFFFFF2200F008040000000000022C04040404000000010000C00040011011C001001140014001000000000000000000000000000000001800000002
:4005400000000000800040BCBC00B40000000000000B0B00000000000018180008000000000000000000000000000000000000000000000000000000000000000000000041
:40058000000000000000000000000000000000000000000000000000000000000000000000000000000000000000000000000000000000000000000000000000000000003B
:4005C00000000000000000000000000000000000000000000000000000000000000000000000000000000000000000000000000000000000000000000000000000000000FB
:4006000000000000000000000000000000000000000000000000000000000000000000000000000000000000000000000000000000000000000000000000000000000000BA
:40064000000000000000000000000000000000000000000000000000000000000000000000000000000000000000000000000000000000000000000000000000000000007A
:0200000490006A
:0400000000004005B7
:0200000490105A
:04000000BC90ACAF55
:0200000490303A
:0200000059EEB7
:0200000490402A
:4000000000000000000000000000000000000000000000000000000000000000000000000000000000000000000000000000000000000000000000000000000000000000C0
:400040000000000000000000000000000000000000000000000000000000000000000000000000000000000000000000000000000000000000000000000000000000000080
:400080000000000000000000000000000000000000000000000000000000000000000000000000000000000000000000000000000000000000000000000000000000000040
:4000C0000000000000000000000000000000000000000000000000000000000000000000000000000000000000000000000000000000000000000000000000000000000000
:0200000490501A
:0C00000000012E16106900012E2F6A5717
:00000001FF